{
	"genesis": {
		"parentHash": "0x0000000000000000000000000000000000000000000000000000000000000000",
		"uncleHash": "0x1dcc4de8dec75d7aab85b567b6ccd41ad312451b948a7413f0a142fd40d49347",
		"miner": "0x0000000000000000000000000000000000000000",
		"stateRoot": "0x950cc3b1c26a9cd52a81793977d91eb11603c310375216ccacc4ffe18af72959",
		"transactionsTrie": "0x56e81f171bcc55a6ff8345e692c0f86e5b48e01b996cadc001622fb5e363b421",
		"receiptTrie": "0x56e81f171bcc55a6ff8345e692c0f86e5b48e01b996cadc001622fb5e363b421",
		"bloom": "0x00000000000000000000000000000000000000000000000000000000000000000000000000000000000000000000000000000000000000000000000000000000000000000000000000000000000000000000000000000000000000000000000000000000000000000000000000000000000000000000000000000000000000000000000000000000000000000000000000000000000000000000000000000000000000000000000000000000000000000000000000000000000000000000000000000000000000000000000000000000000000000000000000000000000000000000000000000000000000000000000000000000000000000000000000000000",
		"difficulty": "0x1",
		"number": "0x0",
		"gasLimit": "0x1c9c380",
		"gasUsed": "0x0",
		"timestamp": "0x631acc79",
		"extraData": "0x1234",
		"mixHash": "0x0000000000000000000000000000000000000000000000000000000000000000",
		"nonce": "0x0000000000000042",
		"raw": "0xf901f7a00000000000000000000000000000000000000000000000000000000000000000a01dcc4de8dec75d7aab85b567b6ccd41ad312451b948a7413f0a142fd40d49347940000000000000000000000000000000000000000a0950cc3b1c26a9cd52a81793977d91eb11603c310375216ccacc4ffe18af72959a056e81f171bcc55a6ff8345e692c0f86e5b48e01b996cadc001622fb5e363b421a056e81f171bcc55a6ff8345e692c0f86e5b48e01b996cadc001622fb5e363b421b901000000000000000000000000000000000000000000000000000000000000000000000000000000000000000000000000000000000000000000000000000000000000000000000000000000000000000000000000000000000000000000000000000000000000000000000000000000000000000000000000000000000000000000000000000000000000000000000000000000000000000000000000000000000000000000000000000000000000000000000000000000000000000000000000000000000000000000000000000000000000000000000000000000000000000000000000000000000000000000000000000000000000000000000000000000000001808401c9c3808084631acc79821234a00000000000000000000000000000000000000000000000000000000000000000880000000000000042"
	},
	"dump": [
		{
			"blockHeader": {
				"parentHash": "0xb4f37c2bd6dae898edb56bf94bc91c8f573ed9327d00ef5e7b57e9f1df185778",
				"uncleHash": "0x1dcc4de8dec75d7aab85b567b6ccd41ad312451b948a7413f0a142fd40d49347",
				"miner": "0xc014ba5ec014ba5ec014ba5ec014ba5ec014ba5e",
				"stateRoot": "0x873229cc8b2a040713e467ab2b0b73ecb9bd8ceb510566a58ea9e92a900fe841",
				"transactionsTrie": "0xa7e8f7c1837a73b4a0fd60945507f082dd23196c68c3f5047ab02db711dbcbd4",
				"receiptTrie": "0x22a118fdbc2f74fb5f1e579deda06abc0eea19406d0b7e1ef44edc605205c587",
				"bloom": "0x00000000000000000000000000000000000000000000000000000000000000000000000000000000000000000000000000000000000000000000000000000000000000000000000000000000000000000000000000000000000000000000000000000040020400000000000000000800000000000000000000008000000000000000000000000000000000000000000000000000000000000000000200000000000000000000000000000000000000000000000000000000000000000000000000000040000000000000000000000000000000001000000000000000000020000000000000000000000000000000000000000000000000000000000000000000",
				"difficulty": "0x20000",
				"number": "0x1",
				"gasLimit": "0x1c9c380",
				"gasUsed": "0x7b018",
				"timestamp": "0x631acc82",
				"extraData": "0x",
				"mixHash": "0x0000000000000000000000000000000000000000000000000000000000000000",
				"nonce": "0x0000000000000042",
				"raw": "0xf901fba0b4f37c2bd6dae898edb56bf94bc91c8f573ed9327d00ef5e7b57e9f1df185778a01dcc4de8dec75d7aab85b567b6ccd41ad312451b948a7413f0a142fd40d4934794c014ba5ec014ba5ec014ba5ec014ba5ec014ba5ea0873229cc8b2a040713e467ab2b0b73ecb9bd8ceb510566a58ea9e92a900fe841a0a7e8f7c1837a73b4a0fd60945507f082dd23196c68c3f5047ab02db711dbcbd4a022a118fdbc2f74fb5f1e579deda06abc0eea19406d0b7e1ef44edc605205c587b901000000000000000000000000000000000000000000000000000000000000000000000000000000000000000000000000000000000000000000000000000000000000000000000000000000000000000000000000000000000000000000000000000000004002040000000000000000080000000000000000000000800000000000000000000000000000000000000000000000000000000000000000020000000000000000000000000000000000000000000000000000000000000000000000000000004000000000000000000000000000000000100000000000000000002000000000000000000000000000000000000000000000000000000000000000000083020000018401c9c3808307b01884631acc8280a00000000000000000000000000000000000000000000000000000000000000000880000000000000042"
			},
			"tx": {
				"hash": "0xc3981d21360292092a78f2caae95ab670acbdfe83ccfa23125f2b052d10a3f1f",
				"from": "0xf39Fd6e51aad88F6F4ce6aB8827279cffFb92266",
				"gasPrice": "0x342770c0",
				"gasLimit": "0x07b018",
				"to": null,
				"value": "0x00",
				"nonce": 0,
				"data": "0x608060405234801561001057600080fd5b506040516108df3803806108df833981810160405281019061003291906100a3565b6000808154809291906100449061010a565b919050557f1aed1268cf2a98d6dd8086f1fe42ce91f1556fa283ab9d4c3beb9ee68a3fa8c660005460405161007991906100db565b60405180910390a28060018190555050610199565b60008151905061009d81610182565b92915050565b6000602082840312156100b557600080fd5b60006100c38482850161008e565b91505092915050565b6100d581610100565b82525050565b60006020820190506100f060008301846100cc565b92915050565b6000819050919050565b6000819050919050565b600061011582610100565b91507fffffffffffffffffffffffffffffffffffffffffffffffffffffffffffffffff82141561014857610147610153565b5b600182019050919050565b7f4e487b7100000000000000000000000000000000000000000000000000000000600052601160045260246000fd5b61018b816100f6565b811461019657600080fd5b50565b610737806101a86000396000f3fe60806040526004361061007a5760003560e01c8063aee1af081161004e578063aee1af0814610127578063d0e30db014610150578063f0ba84401461015a578063f3fef3a3146101975761007a565b8062f55d9d1461007f57806309bd5a60146100a85780630c4c4285146100d35780634b2f073a146100fc575b600080fd5b34801561008b57600080fd5b506100a660048036038101906100a1919061046a565b6101c0565b005b3480156100b457600080fd5b506100bd610228565b6040516100ca91906105a5565b60405180910390f35b3480156100df57600080fd5b506100fa60048036038101906100f591906104cf565b61022e565b005b34801561010857600080fd5b50610111610287565b60405161011e91906105c0565b60405180910390f35b34801561013357600080fd5b5061014e60048036038101906101499190610521565b61028d565b005b61015861030b565b005b34801561016657600080fd5b50610181600480360381019061017c91906104f8565b61035c565b60405161018e919061058a565b60405180910390f35b3480156101a357600080fd5b506101be60048036038101906101b99190610493565b61037c565b005b6000808154809291906101d29061062d565b919050557f1aed1268cf2a98d6dd8086f1fe42ce91f1556fa283ab9d4c3beb9ee68a3fa8c660005460405161020791906105c0565b60405180910390a28073ffffffffffffffffffffffffffffffffffffffff16ff5b60015481565b6000808154809291906102409061062d565b919050557f1aed1268cf2a98d6dd8086f1fe42ce91f1556fa283ab9d4c3beb9ee68a3fa8c660005460405161027591906105c0565b60405180910390a28060018190555050565b60005481565b60008081548092919061029f9061062d565b919050557f1aed1268cf2a98d6dd8086f1fe42ce91f1556fa283ab9d4c3beb9ee68a3fa8c66000546040516102d491906105c0565b60405180910390a2806002600084815260200190815260200160002060006101000a81548160ff0219169083151502179055505050565b60008081548092919061031d9061062d565b919050557f1aed1268cf2a98d6dd8086f1fe42ce91f1556fa283ab9d4c3beb9ee68a3fa8c660005460405161035291906105c0565b60405180910390a2565b60026020528060005260406000206000915054906101000a900460ff1681565b60008081548092919061038e9061062d565b919050557f1aed1268cf2a98d6dd8086f1fe42ce91f1556fa283ab9d4c3beb9ee68a3fa8c66000546040516103c391906105c0565b60405180910390a28173ffffffffffffffffffffffffffffffffffffffff166108fc829081150290604051600060405180830381858888f19350505050158015610411573d6000803e3d6000fd5b505050565b600081359050610425816106a5565b92915050565b60008135905061043a816106bc565b92915050565b60008135905061044f816106d3565b92915050565b600081359050610464816106ea565b92915050565b60006020828403121561047c57600080fd5b600061048a84828501610416565b91505092915050565b600080604083850312156104a657600080fd5b60006104b485828601610416565b92505060206104c585828601610455565b9150509250929050565b6000602082840312156104e157600080fd5b60006104ef84828501610440565b91505092915050565b60006020828403121561050a57600080fd5b600061051884828501610455565b91505092915050565b6000806040838503121561053457600080fd5b600061054285828601610455565b92505060206105538582860161042b565b9150509250929050565b610566816105ed565b82525050565b610575816105f9565b82525050565b61058481610623565b82525050565b600060208201905061059f600083018461055d565b92915050565b60006020820190506105ba600083018461056c565b92915050565b60006020820190506105d5600083018461057b565b92915050565b60006105e682610603565b9050919050565b60008115159050919050565b6000819050919050565b600073ffffffffffffffffffffffffffffffffffffffff82169050919050565b6000819050919050565b600061063882610623565b91507fffffffffffffffffffffffffffffffffffffffffffffffffffffffffffffffff82141561066b5761066a610676565b5b600182019050919050565b7f4e487b7100000000000000000000000000000000000000000000000000000000600052601160045260246000fd5b6106ae816105db565b81146106b957600080fd5b50565b6106c5816105ed565b81146106d057600080fd5b50565b6106dc816105f9565b81146106e757600080fd5b50565b6106f381610623565b81146106fe57600080fd5b5056fea26469706673582212201b59301cdb973dbf65990f4ee31817dbba61ae0d57210c3f7a462267860b9e8964736f6c6343000804003372522663d51f9e29d0e1bab61e6b24aabca32784951c9551c1ea87e47aaa3a8b",
				"raw": "0xf909538084342770c0834ce0f08080b908ff608060405234801561001057600080fd5b506040516108df3803806108df833981810160405281019061003291906100a3565b6000808154809291906100449061010a565b919050557f1aed1268cf2a98d6dd8086f1fe42ce91f1556fa283ab9d4c3beb9ee68a3fa8c660005460405161007991906100db565b60405180910390a28060018190555050610199565b60008151905061009d81610182565b92915050565b6000602082840312156100b557600080fd5b60006100c38482850161008e565b91505092915050565b6100d581610100565b82525050565b60006020820190506100f060008301846100cc565b92915050565b6000819050919050565b6000819050919050565b600061011582610100565b91507fffffffffffffffffffffffffffffffffffffffffffffffffffffffffffffffff82141561014857610147610153565b5b600182019050919050565b7f4e487b7100000000000000000000000000000000000000000000000000000000600052601160045260246000fd5b61018b816100f6565b811461019657600080fd5b50565b610737806101a86000396000f3fe60806040526004361061007a5760003560e01c8063aee1af081161004e578063aee1af0814610127578063d0e30db014610150578063f0ba84401461015a578063f3fef3a3146101975761007a565b8062f55d9d1461007f57806309bd5a60146100a85780630c4c4285146100d35780634b2f073a146100fc575b600080fd5b34801561008b57600080fd5b506100a660048036038101906100a1919061046a565b6101c0565b005b3480156100b457600080fd5b506100bd610228565b6040516100ca91906105a5565b60405180910390f35b3480156100df57600080fd5b506100fa60048036038101906100f591906104cf565b61022e565b005b34801561010857600080fd5b50610111610287565b60405161011e91906105c0565b60405180910390f35b34801561013357600080fd5b5061014e60048036038101906101499190610521565b61028d565b005b61015861030b565b005b34801561016657600080fd5b50610181600480360381019061017c91906104f8565b61035c565b60405161018e919061058a565b60405180910390f35b3480156101a357600080fd5b506101be60048036038101906101b99190610493565b61037c565b005b6000808154809291906101d29061062d565b919050557f1aed1268cf2a98d6dd8086f1fe42ce91f1556fa283ab9d4c3beb9ee68a3fa8c660005460405161020791906105c0565b60405180910390a28073ffffffffffffffffffffffffffffffffffffffff16ff5b60015481565b6000808154809291906102409061062d565b919050557f1aed1268cf2a98d6dd8086f1fe42ce91f1556fa283ab9d4c3beb9ee68a3fa8c660005460405161027591906105c0565b60405180910390a28060018190555050565b60005481565b60008081548092919061029f9061062d565b919050557f1aed1268cf2a98d6dd8086f1fe42ce91f1556fa283ab9d4c3beb9ee68a3fa8c66000546040516102d491906105c0565b60405180910390a2806002600084815260200190815260200160002060006101000a81548160ff0219169083151502179055505050565b60008081548092919061031d9061062d565b919050557f1aed1268cf2a98d6dd8086f1fe42ce91f1556fa283ab9d4c3beb9ee68a3fa8c660005460405161035291906105c0565b60405180910390a2565b60026020528060005260406000206000915054906101000a900460ff1681565b60008081548092919061038e9061062d565b919050557f1aed1268cf2a98d6dd8086f1fe42ce91f1556fa283ab9d4c3beb9ee68a3fa8c66000546040516103c391906105c0565b60405180910390a28173ffffffffffffffffffffffffffffffffffffffff166108fc829081150290604051600060405180830381858888f19350505050158015610411573d6000803e3d6000fd5b505050565b600081359050610425816106a5565b92915050565b60008135905061043a816106bc565b92915050565b60008135905061044f816106d3565b92915050565b600081359050610464816106ea565b92915050565b60006020828403121561047c57600080fd5b600061048a84828501610416565b91505092915050565b600080604083850312156104a657600080fd5b60006104b485828601610416565b92505060206104c585828601610455565b9150509250929050565b6000602082840312156104e157600080fd5b60006104ef84828501610440565b91505092915050565b60006020828403121561050a57600080fd5b600061051884828501610455565b91505092915050565b6000806040838503121561053457600080fd5b600061054285828601610455565b92505060206105538582860161042b565b9150509250929050565b610566816105ed565b82525050565b610575816105f9565b82525050565b61058481610623565b82525050565b600060208201905061059f600083018461055d565b92915050565b60006020820190506105ba600083018461056c565b92915050565b60006020820190506105d5600083018461057b565b92915050565b60006105e682610603565b9050919050565b60008115159050919050565b6000819050919050565b600073ffffffffffffffffffffffffffffffffffffffff82169050919050565b6000819050919050565b600061063882610623565b91507fffffffffffffffffffffffffffffffffffffffffffffffffffffffffffffffff82141561066b5761066a610676565b5b600182019050919050565b7f4e487b7100000000000000000000000000000000000000000000000000000000600052601160045260246000fd5b6106ae816105db565b81146106b957600080fd5b50565b6106c5816105ed565b81146106d057600080fd5b50565b6106dc816105f9565b81146106e757600080fd5b50565b6106f381610623565b81146106fe57600080fd5b5056fea26469706673582212201b59301cdb973dbf65990f4ee31817dbba61ae0d57210c3f7a462267860b9e8964736f6c6343000804003372522663d51f9e29d0e1bab61e6b24aabca32784951c9551c1ea87e47aaa3a8b82f4f5a0c7ac34cb859af9bdcdcb1469a2933d8fee2a84d69cb8b228f8743a4d3fd6cd32a079d7b4fe6e2f4e2827f19798aae96b09ac90271688616a26816a73ce639cd276"
			},
			"receipt": {
				"contractAddress": "0x5FbDB2315678afecb367f032d93F642f64180aa3",
				"gasUsed": "0x07b018",
				"logsBloom": "0x00000000000000000000000000000000000000000000000000000000000000000000000000000000000000000000000000000000000000000000000000000000000000000000000000000000000000000000000000000000000000000000000000000040020400000000000000000800000000000000000000008000000000000000000000000000000000000000000000000000000000000000000200000000000000000000000000000000000000000000000000000000000000000000000000000040000000000000000000000000000000001000000000000000000020000000000000000000000000000000000000000000000000000000000000000000",
				"status": 1,
				"logs": [
					{
						"address": "0x5FbDB2315678afecb367f032d93F642f64180aa3",
						"topics": [
							"0x1aed1268cf2a98d6dd8086f1fe42ce91f1556fa283ab9d4c3beb9ee68a3fa8c6",
							"0x0000000000000000000000000000000000000000000000000000000000000000"
						],
						"data": "0x0000000000000000000000000000000000000000000000000000000000000001",
						"logIndex": 0
					}
				]
			}
		},
		{
			"blockHeader": {
				"parentHash": "0x9eb0448eebe7efeb5821a453534a55f026d9005b5b7ff3db43bdc6c2ca890272",
				"uncleHash": "0x1dcc4de8dec75d7aab85b567b6ccd41ad312451b948a7413f0a142fd40d49347",
				"miner": "0xc014ba5ec014ba5ec014ba5ec014ba5ec014ba5e",
				"stateRoot": "0x8078be4895d2024e37b462115ac9807d44b6f4ac443d0d29b100937b2b1e6312",
				"transactionsTrie": "0x17b3ed3b620b485dd18c51e29a4c700845c2281b3675876711908a3c587c8711",
				"receiptTrie": "0x200a7d902aa3eb29aaa3e4c31c9199886727836cf8370ca9ee0b1bfc2c5cc591",
				"bloom": "0x00000000000000000000000000000000000000000000000000000000000000000000000000000000000000000000000000000000000000000000000000040000000000000000000000000000000000000000000000040000000000000000000000000040000400000000000000000000000000000000000000008000000000000000000000000000000000000000000000000000000000000000000200000000000000000000000000000000000000000000000000000000000000000000000000000040000000000000000000000000000000001000000000000000000040000000000000000000000000000000000000000000000000000000000000000000",
				"difficulty": "0x20040",
				"number": "0x2",
				"gasLimit": "0x1c9c380",
				"gasUsed": "0x843d",
				"timestamp": "0x631acc83",
				"extraData": "0x",
				"mixHash": "0x0000000000000000000000000000000000000000000000000000000000000000",
				"nonce": "0x0000000000000042",
				"raw": "0xf901faa09eb0448eebe7efeb5821a453534a55f026d9005b5b7ff3db43bdc6c2ca890272a01dcc4de8dec75d7aab85b567b6ccd41ad312451b948a7413f0a142fd40d4934794c014ba5ec014ba5ec014ba5ec014ba5ec014ba5ea08078be4895d2024e37b462115ac9807d44b6f4ac443d0d29b100937b2b1e6312a017b3ed3b620b485dd18c51e29a4c700845c2281b3675876711908a3c587c8711a0200a7d902aa3eb29aaa3e4c31c9199886727836cf8370ca9ee0b1bfc2c5cc591b901000000000000000000000000000000000000000000000000000000000000000000000000000000000000000000000000000000000000000000000000000004000000000000000000000000000000000000000000000004000000000000000000000000004000040000000000000000000000000000000000000000800000000000000000000000000000000000000000000000000000000000000000020000000000000000000000000000000000000000000000000000000000000000000000000000004000000000000000000000000000000000100000000000000000004000000000000000000000000000000000000000000000000000000000000000000083020040028401c9c38082843d84631acc8380a00000000000000000000000000000000000000000000000000000000000000000880000000000000042"
			},
			"tx": {
				"hash": "0x42dde756113d1ed874d408b642657c96dcf22b7b10a267604a40b0e2e4b5ecfc",
				"from": "0xf39Fd6e51aad88F6F4ce6aB8827279cffFb92266",
				"gasPrice": "0x2dda9157",
				"gasLimit": "0x843d",
				"to": "0x5FbDB2315678afecb367f032d93F642f64180aa3",
				"value": "0x00",
				"nonce": 1,
				"data": "0x0c4c428500701a075d65cbb1645369211d1e2c6282e06f385df37ef776e0410cc6e11931",
				"raw": "0xf88a01842dda915783052a62945fbdb2315678afecb367f032d93f642f64180aa380a40c4c428500701a075d65cbb1645369211d1e2c6282e06f385df37ef776e0410cc6e1193182f4f6a071d483a17a9ee3d0bcd68cce4ed4261d56a5f71fcc42b8a452251fadd31ea4fca002dce33084e0adca6c58eec3d98baf0af2d031ce37933c97eb4b5b6ad19f07c8"
			},
			"receipt": {
				"contractAddress": null,
				"gasUsed": "0x843d",
				"logsBloom": "0x00000000000000000000000000000000000000000000000000000000000000000000000000000000000000000000000000000000000000000000000000040000000000000000000000000000000000000000000000040000000000000000000000000040000400000000000000000000000000000000000000008000000000000000000000000000000000000000000000000000000000000000000200000000000000000000000000000000000000000000000000000000000000000000000000000040000000000000000000000000000000001000000000000000000040000000000000000000000000000000000000000000000000000000000000000000",
				"status": 1,
				"logs": [
					{
						"address": "0x5FbDB2315678afecb367f032d93F642f64180aa3",
						"topics": [
							"0x1aed1268cf2a98d6dd8086f1fe42ce91f1556fa283ab9d4c3beb9ee68a3fa8c6",
							"0x0000000000000000000000000000000000000000000000000000000000000001"
						],
						"data": "0x0000000000000000000000000000000000000000000000000000000000000002",
						"logIndex": 0
					}
				]
			}
		},
		{
			"blockHeader": {
				"parentHash": "0xfcf4ca9bafd54567f62914fb63c54b2405fa9774cf6d27b56e301cf35c9318df",
				"uncleHash": "0x1dcc4de8dec75d7aab85b567b6ccd41ad312451b948a7413f0a142fd40d49347",
				"miner": "0xc014ba5ec014ba5ec014ba5ec014ba5ec014ba5e",
				"stateRoot": "0xa5667e6af3838d597666157947dcf64d4bf2786432b2b4c38c4208921dd50b9b",
				"transactionsTrie": "0x3a776f9fafb160a0cf60388012f98f6fd31b1c1f66188449a3007d0fe1b71885",
				"receiptTrie": "0xe8c5b266a27d0f012f6035bc3bfb3ff7c07e688b46d633ac3201418fecae417d",
				"bloom": "0x04000000000000000000000000000000000000000000000000000000000000000000000000000000000000000000000000000000000000000000000000000000000000000000000000000000000000000000000000000000000000000000000000000040000400000000000000000000000000000000000000008000000000000000000000000000000000000000000000000000000000000000000200000000000000000000000000000100000000000000000000000000000000000000000000000040000000000000000000000000000000001000000000000000000000000000000000000000000000000000000000000000008000000000000000000000",
				"difficulty": "0x20080",
				"number": "0x3",
				"gasLimit": "0x1c9c380",
				"gasUsed": "0x6d7e",
				"timestamp": "0x631acc84",
				"extraData": "0x",
				"mixHash": "0x0000000000000000000000000000000000000000000000000000000000000000",
				"nonce": "0x0000000000000042",
				"raw": "0xf901faa0fcf4ca9bafd54567f62914fb63c54b2405fa9774cf6d27b56e301cf35c9318dfa01dcc4de8dec75d7aab85b567b6ccd41ad312451b948a7413f0a142fd40d4934794c014ba5ec014ba5ec014ba5ec014ba5ec014ba5ea0a5667e6af3838d597666157947dcf64d4bf2786432b2b4c38c4208921dd50b9ba03a776f9fafb160a0cf60388012f98f6fd31b1c1f66188449a3007d0fe1b71885a0e8c5b266a27d0f012f6035bc3bfb3ff7c07e688b46d633ac3201418fecae417db901000400000000000000000000000000000000000000000000000000000000000000000000000000000000000000000000000000000000000000000000000000000000000000000000000000000000000000000000000000000000000000000000000000004000040000000000000000000000000000000000000000800000000000000000000000000000000000000000000000000000000000000000020000000000000000000000000000010000000000000000000000000000000000000000000000004000000000000000000000000000000000100000000000000000000000000000000000000000000000000000000000000000800000000000000000000083020080038401c9c380826d7e84631acc8480a00000000000000000000000000000000000000000000000000000000000000000880000000000000042"
			},
			"tx": {
				"hash": "0xc2869dcbe0811dc58514e3c38b95a5b5536ca22812e0e2ea9c8503b1e6fe13f8",
				"from": "0xf39Fd6e51aad88F6F4ce6aB8827279cffFb92266",
				"gasPrice": "0x28228eee",
				"gasLimit": "0x6d7e",
				"to": "0x5FbDB2315678afecb367f032d93F642f64180aa3",
				"value": "0x0de0b6b3a7640000",
				"nonce": 2,
				"data": "0xd0e30db0",
				"raw": "0xf872028428228eee830446ec945fbdb2315678afecb367f032d93f642f64180aa3880de0b6b3a764000084d0e30db082f4f6a01d9e3641de84b615c1cc095c34ce9f6c4c58c426ced86064990e64586525f723a054596c159f619b0bf49c16547556f6456ab4c8ea3d2a6e9bf3beaec57117d106"
			},
			"receipt": {
				"contractAddress": null,
				"gasUsed": "0x6d7e",
				"logsBloom": "0x04000000000000000000000000000000000000000000000000000000000000000000000000000000000000000000000000000000000000000000000000000000000000000000000000000000000000000000000000000000000000000000000000000040000400000000000000000000000000000000000000008000000000000000000000000000000000000000000000000000000000000000000200000000000000000000000000000100000000000000000000000000000000000000000000000040000000000000000000000000000000001000000000000000000000000000000000000000000000000000000000000000008000000000000000000000",
				"status": 1,
				"logs": [
					{
						"address": "0x5FbDB2315678afecb367f032d93F642f64180aa3",
						"topics": [
							"0x1aed1268cf2a98d6dd8086f1fe42ce91f1556fa283ab9d4c3beb9ee68a3fa8c6",
							"0x0000000000000000000000000000000000000000000000000000000000000002"
						],
						"data": "0x0000000000000000000000000000000000000000000000000000000000000003",
						"logIndex": 0
					}
				]
			}
		},
		{
			"blockHeader": {
				"parentHash": "0x99513cef76045113ddf719769e99a19aa8075d19c9b08e1229c934e2c26bc7e3",
				"uncleHash": "0x1dcc4de8dec75d7aab85b567b6ccd41ad312451b948a7413f0a142fd40d49347",
				"miner": "0xc014ba5ec014ba5ec014ba5ec014ba5ec014ba5e",
				"stateRoot": "0x3fb5752f8d80893f4671d43300a47c7ae0d71a7d52ec3161658a65ced39adcb5",
				"transactionsTrie": "0xaa1b1fd7b71a0eac46f4859fa49f38cccf699a9069bce6576addc21387231cba",
				"receiptTrie": "0xa8f9d0b466a7ad912b10e3c19ac5b081da166a12884f7e567f7c4787b85cf5ae",
				"bloom": "0x00000000000000000000000000000000000000000000000000000000000000000000000000000000000000000000000000000000020000000000000000000000000000000000000000000000000000000000000000000000000000000000000000000040000400000000000000000000000000000000000000008000000000000000000000000000000000000000000000000000000000000000000200000000000000000000000000000000000000000000000000800000000000000000400000000040000000000000000000000000000000001000000000000000000000000000000000000000000000000000000000000000000000000000000000000000",
				"difficulty": "0x200c0",
				"number": "0x4",
				"gasLimit": "0x1c9c380",
				"gasUsed": "0x83a2",
				"timestamp": "0x631acc85",
				"extraData": "0x",
				"mixHash": "0x0000000000000000000000000000000000000000000000000000000000000000",
				"nonce": "0x0000000000000042",
				"raw": "0xf901faa099513cef76045113ddf719769e99a19aa8075d19c9b08e1229c934e2c26bc7e3a01dcc4de8dec75d7aab85b567b6ccd41ad312451b948a7413f0a142fd40d4934794c014ba5ec014ba5ec014ba5ec014ba5ec014ba5ea03fb5752f8d80893f4671d43300a47c7ae0d71a7d52ec3161658a65ced39adcb5a0aa1b1fd7b71a0eac46f4859fa49f38cccf699a9069bce6576addc21387231cbaa0a8f9d0b466a7ad912b10e3c19ac5b081da166a12884f7e567f7c4787b85cf5aeb9010000000000000000000000000000000000000000000000000000000000000000000000000000000000000000000000000000000000020000000000000000000000000000000000000000000000000000000000000000000000000000000000000000000040000400000000000000000000000000000000000000008000000000000000000000000000000000000000000000000000000000000000000200000000000000000000000000000000000000000000000000800000000000000000400000000040000000000000000000000000000000001000000000000000000000000000000000000000000000000000000000000000000000000000000000000000830200c0048401c9c3808283a284631acc8580a00000000000000000000000000000000000000000000000000000000000000000880000000000000042"
			},
			"tx": {
				"hash": "0xdd153d202efb8e498908a2b3a739c37148e0204c0c6eef42b0db37be258325c5",
				"from": "0xf39Fd6e51aad88F6F4ce6aB8827279cffFb92266",
				"gasPrice": "0x2320a375",
				"gasLimit": "0x83a2",
				"to": "0x5FbDB2315678afecb367f032d93F642f64180aa3",
				"value": "0x00",
				"nonce": 3,
				"data": "0x00f55d9d000000000000000000000000f39fd6e51aad88f6f4ce6ab8827279cfffb92266",
				"raw": "0xf88a03842320a37583052454945fbdb2315678afecb367f032d93f642f64180aa380a400f55d9d000000000000000000000000f39fd6e51aad88f6f4ce6ab8827279cfffb9226682f4f6a0034837555f71e96eaefc6a69598b0b80d466b7ca9b253f42e3b03026d3147c61a019026db6cdce75cbdf8836896725a0923031d954f44fee9d43891c3b66a52dbd"
			},
			"receipt": {
				"contractAddress": null,
				"gasUsed": "0x83a2",
				"logsBloom": "0x00000000000000000000000000000000000000000000000000000000000000000000000000000000000000000000000000000000020000000000000000000000000000000000000000000000000000000000000000000000000000000000000000000040000400000000000000000000000000000000000000008000000000000000000000000000000000000000000000000000000000000000000200000000000000000000000000000000000000000000000000800000000000000000400000000040000000000000000000000000000000001000000000000000000000000000000000000000000000000000000000000000000000000000000000000000",
				"status": 1,
				"logs": [
					{
						"address": "0x5FbDB2315678afecb367f032d93F642f64180aa3",
						"topics": [
							"0x1aed1268cf2a98d6dd8086f1fe42ce91f1556fa283ab9d4c3beb9ee68a3fa8c6",
							"0x0000000000000000000000000000000000000000000000000000000000000003"
						],
						"data": "0x0000000000000000000000000000000000000000000000000000000000000004",
						"logIndex": 0
					}
				]
			}
		}
	]
}